8=FIXT.1.1|9=229|35=f|34=2852|49=FGW|52=20201124-11:17:26.968|56=DEMO-CONN1|15=RUB|22=8|31=54|48=INSTR1|58=The simulated SecurityStatus has been sent|324=INSTR1|325=N|326=17|330=0|331=0|332=56|333=54|336=1|625=3|1025=54|1300=NEW|1301=Demo Market|10=077|
8=FIXT.1.1|9=229|35=f|34=2853|49=FGW|52=20201124-11:17:26.969|56=DEMO-CONN1|15=RUB|22=8|31=54|48=INSTR2|58=The simulated SecurityStatus has been sent|324=INSTR2|325=N|326=17|330=0|331=0|332=56|333=54|336=1|625=3|1025=54|1300=NEW|1301=Demo Market|10=081|
8=FIXT.1.1|9=228|35=f|34=803|49=FGW|52=20201123-18:50:08.956|56=DEMO-CONN1|15=RUB|22=8|31=54|48=INSTR4|58=The simulated SecurityStatus has been sent|324=INSTR4|325=N|326=17|330=0|331=0|332=56|333=54|336=1|625=3|1025=54|1300=NEW|1301=Demo Market|10=028|
8=FIXT.1.1|9=228|35=f|34=804|49=FGW|52=20201123-18:50:08.957|56=DEMO-CONN1|15=RUB|22=8|31=54|48=INSTR5|58=The simulated SecurityStatus has been sent|324=INSTR5|325=N|326=17|330=0|331=0|332=56|333=54|336=1|625=3|1025=54|1300=NEW|1301=Demo Market|10=032|
8=FIXT.1.1|9=228|35=f|34=802|49=FGW|52=20201123-18:50:08.952|56=DEMO-CONN1|15=RUB|22=8|31=54|48=INSTR3|58=The simulated SecurityStatus has been sent|324=INSTR3|325=N|326=17|330=0|331=0|332=56|333=54|336=1|625=3|1025=54|1300=NEW|1301=Demo Market|10=021|
8=FIXT.1.1|9=228|35=f|34=802|49=FGW|52=20201123-18:50:08.952|56=DEMO-CONN1|15=RUB|22=8|31=54|48=INSTR6|58=The simulated SecurityStatus has been sent|324=INSTR6|325=N|326=17|330=0|331=0|332=56|333=54|336=1|625=3|1025=54|1300=NEW|1301=Demo Market|10=027|
8=FIXT.1.1|9=228|35=f|34=802|49=FGW|52=20201123-18:50:08.952|56=DEMO-CONN1|15=RUB|22=8|31=54|48=INSTR7|58=The simulated SecurityStatus has been sent|324=INSTR7|325=N|326=17|330=0|331=0|332=56|333=54|336=1|625=3|1025=54|1300=NEW|1301=Demo Market|10=029|
8=FIXT.1.1|9=228|35=f|34=802|49=FGW|52=20201123-18:50:08.952|56=DEMO-CONN1|15=RUB|22=8|31=54|48=INSTR8|58=The simulated SecurityStatus has been sent|324=INSTR8|325=N|326=17|330=0|331=0|332=56|333=54|336=1|625=3|1025=54|1300=NEW|1301=Demo Market|10=031|
8=FIXT.1.1|9=228|35=f|34=802|49=FGW|52=20201123-18:50:08.952|56=DEMO-CONN1|15=RUB|22=8|31=54|48=INSTR9|58=The simulated SecurityStatus has been sent|324=INSTR9|325=N|326=17|330=0|331=0|332=56|333=54|336=1|625=3|1025=54|1300=NEW|1301=Demo Market|10=033|
8=FIXT.1.1|9=228|35=f|34=802|49=FGW|52=20201123-18:50:08.952|56=DEMO-CONN1|15=RUB|22=8|31=54|48=INST10|58=The simulated SecurityStatus has been sent|324=INST10|325=N|326=17|330=0|331=0|332=56|333=54|336=1|625=3|1025=54|1300=NEW|1301=Demo Market|10=205|
8=FIXT.1.1|9=228|35=f|34=802|49=FGW|52=20201123-18:50:08.952|56=DEMO-CONN1|15=RUB|22=8|31=54|48=INST11|58=The simulated SecurityStatus has been sent|324=INST11|325=N|326=17|330=0|331=0|332=56|333=54|336=1|625=3|1025=54|1300=NEW|1301=Demo Market|10=207|
8=FIXT.1.1|9=228|35=f|34=802|49=FGW|52=20201123-18:50:08.952|56=DEMO-CONN1|15=RUB|22=8|31=54|48=INST12|58=The simulated SecurityStatus has been sent|324=INST12|325=N|326=17|330=0|331=0|332=56|333=54|336=1|625=3|1025=54|1300=NEW|1301=Demo Market|10=209|
8=FIXT.1.1|9=228|35=f|34=802|49=FGW|52=20201123-18:50:08.952|56=DEMO-CONN1|15=RUB|22=8|31=54|48=INST13|58=The simulated SecurityStatus has been sent|324=INST13|325=N|326=17|330=0|331=0|332=56|333=54|336=1|625=3|1025=54|1300=NEW|1301=Demo Market|10=211|
8=FIXT.1.1|9=228|35=f|34=802|49=FGW|52=20201123-18:50:08.952|56=DEMO-CONN1|15=RUB|22=8|31=54|48=INST14|58=The simulated SecurityStatus has been sent|324=INST14|325=N|326=17|330=0|331=0|332=56|333=54|336=1|625=3|1025=54|1300=NEW|1301=Demo Market|10=213|
8=FIXT.1.1|9=228|35=f|34=802|49=FGW|52=20201123-18:50:08.952|56=DEMO-CONN1|15=RUB|22=8|31=54|48=INST15|58=The simulated SecurityStatus has been sent|324=INST15|325=N|326=17|330=0|331=0|332=56|333=54|336=1|625=3|1025=54|1300=NEW|1301=Demo Market|10=215|
8=FIXT.1.1|9=228|35=f|34=802|49=FGW|52=20201123-18:50:08.952|56=DEMO-CONN1|15=RUB|22=8|31=54|48=INST16|58=The simulated SecurityStatus has been sent|324=INST16|325=N|326=17|330=0|331=0|332=56|333=54|336=1|625=3|1025=54|1300=NEW|1301=Demo Market|10=217|
8=FIXT.1.1|9=228|35=f|34=802|49=FGW|52=20201123-18:50:08.952|56=DEMO-CONN1|15=RUB|22=8|31=54|48=INST17|58=The simulated SecurityStatus has been sent|324=INST17|325=N|326=17|330=0|331=0|332=56|333=54|336=1|625=3|1025=54|1300=NEW|1301=Demo Market|10=219|
8=FIXT.1.1|9=228|35=f|34=802|49=FGW|52=20201123-18:50:08.952|56=DEMO-CONN1|15=RUB|22=8|31=54|48=INST18|58=The simulated SecurityStatus has been sent|324=INST18|325=N|326=17|330=0|331=0|332=56|333=54|336=1|625=3|1025=54|1300=NEW|1301=Demo Market|10=221|
8=FIXT.1.1|9=228|35=f|34=802|49=FGW|52=20201123-18:50:08.952|56=DEMO-CONN1|15=RUB|22=8|31=54|48=INST19|58=The simulated SecurityStatus has been sent|324=INST19|325=N|326=17|330=0|331=0|332=56|333=54|336=1|625=3|1025=54|1300=NEW|1301=Demo Market|10=223|
8=FIXT.1.1|9=228|35=f|34=802|49=FGW|52=20201123-18:50:08.952|56=DEMO-CONN1|15=RUB|22=8|31=54|48=INST20|58=The simulated SecurityStatus has been sent|324=INST20|325=N|326=17|330=0|331=0|332=56|333=54|336=1|625=3|1025=54|1300=NEW|1301=Demo Market|10=207|
8=FIXT.1.1|9=228|35=f|34=802|49=FGW|52=20201123-18:50:08.952|56=DEMO-CONN1|15=RUB|22=8|31=54|48=INST21|58=The simulated SecurityStatus has been sent|324=INST21|325=N|326=17|330=0|331=0|332=56|333=54|336=1|625=3|1025=54|1300=NEW|1301=Demo Market|10=209|
8=FIXT.1.1|9=228|35=f|34=802|49=FGW|52=20201123-18:50:08.952|56=DEMO-CONN1|15=RUB|22=8|31=54|48=INST22|58=The simulated SecurityStatus has been sent|324=INST22|325=N|326=17|330=0|331=0|332=56|333=54|336=1|625=3|1025=54|1300=NEW|1301=Demo Market|10=211|
8=FIXT.1.1|9=228|35=f|34=802|49=FGW|52=20201123-18:50:08.952|56=DEMO-CONN1|15=RUB|22=8|31=54|48=INST23|58=The simulated SecurityStatus has been sent|324=INST23|325=N|326=17|330=0|331=0|332=56|333=54|336=1|625=3|1025=54|1300=NEW|1301=Demo Market|10=213|
8=FIXT.1.1|9=228|35=f|34=802|49=FGW|52=20201123-18:50:08.952|56=DEMO-CONN1|15=RUB|22=8|31=54|48=INST24|58=The simulated SecurityStatus has been sent|324=INST24|325=N|326=17|330=0|331=0|332=56|333=54|336=1|625=3|1025=54|1300=NEW|1301=Demo Market|10=215|
8=FIXT.1.1|9=228|35=f|34=802|49=FGW|52=20201123-18:50:08.952|56=DEMO-CONN1|15=RUB|22=8|31=54|48=INST25|58=The simulated SecurityStatus has been sent|324=INST25|325=N|326=17|330=0|331=0|332=56|333=54|336=1|625=3|1025=54|1300=NEW|1301=Demo Market|10=217|
8=FIXT.1.1|9=228|35=f|34=802|49=FGW|52=20201123-18:50:08.952|56=DEMO-CONN1|15=RUB|22=8|31=54|48=INST26|58=The simulated SecurityStatus has been sent|324=INST26|325=N|326=17|330=0|331=0|332=56|333=54|336=1|625=3|1025=54|1300=NEW|1301=Demo Market|10=219|
8=FIXT.1.1|9=228|35=f|34=802|49=FGW|52=20201123-18:50:08.952|56=DEMO-CONN1|15=RUB|22=8|31=54|48=INST27|58=The simulated SecurityStatus has been sent|324=INST27|325=N|326=17|330=0|331=0|332=56|333=54|336=1|625=3|1025=54|1300=NEW|1301=Demo Market|10=221|
8=FIXT.1.1|9=228|35=f|34=802|49=FGW|52=20201123-18:50:08.952|56=DEMO-CONN1|15=RUB|22=8|31=54|48=INST28|58=The simulated SecurityStatus has been sent|324=INST28|325=N|326=17|330=0|331=0|332=56|333=54|336=1|625=3|1025=54|1300=NEW|1301=Demo Market|10=223|
8=FIXT.1.1|9=228|35=f|34=802|49=FGW|52=20201123-18:50:08.952|56=DEMO-CONN1|15=RUB|22=8|31=54|48=INST29|58=The simulated SecurityStatus has been sent|324=INST29|325=N|326=17|330=0|331=0|332=56|333=54|336=1|625=3|1025=54|1300=NEW|1301=Demo Market|10=225|
8=FIXT.1.1|9=228|35=f|34=802|49=FGW|52=20201123-18:50:08.952|56=DEMO-CONN1|15=RUB|22=8|31=54|48=INST30|58=The simulated SecurityStatus has been sent|324=INST30|325=N|326=17|330=0|331=0|332=56|333=54|336=1|625=3|1025=54|1300=NEW|1301=Demo Market|10=209|
8=FIXT.1.1|9=228|35=f|34=802|49=FGW|52=20201123-18:50:08.952|56=DEMO-CONN1|15=RUB|22=8|31=54|48=INST31|58=The simulated SecurityStatus has been sent|324=INST31|325=N|326=17|330=0|331=0|332=56|333=54|336=1|625=3|1025=54|1300=NEW|1301=Demo Market|10=211|
8=FIXT.1.1|9=228|35=f|34=802|49=FGW|52=20201123-18:50:08.952|56=DEMO-CONN1|15=RUB|22=8|31=54|48=INST32|58=The simulated SecurityStatus has been sent|324=INST32|325=N|326=17|330=0|331=0|332=56|333=54|336=1|625=3|1025=54|1300=NEW|1301=Demo Market|10=213|
8=FIXT.1.1|9=228|35=f|34=802|49=FGW|52=20201123-18:50:08.952|56=DEMO-CONN1|15=RUB|22=8|31=54|48=INST33|58=The simulated SecurityStatus has been sent|324=INST33|325=N|326=17|330=0|331=0|332=56|333=54|336=1|625=3|1025=54|1300=NEW|1301=Demo Market|10=215|
8=FIXT.1.1|9=228|35=f|34=802|49=FGW|52=20201123-18:50:08.952|56=DEMO-CONN1|15=RUB|22=8|31=54|48=INST34|58=The simulated SecurityStatus has been sent|324=INST34|325=N|326=17|330=0|331=0|332=56|333=54|336=1|625=3|1025=54|1300=NEW|1301=Demo Market|10=217|
8=FIXT.1.1|9=228|35=f|34=802|49=FGW|52=20201123-18:50:08.952|56=DEMO-CONN1|15=RUB|22=8|31=54|48=INST35|58=The simulated SecurityStatus has been sent|324=INST35|325=N|326=17|330=0|331=0|332=56|333=54|336=1|625=3|1025=54|1300=NEW|1301=Demo Market|10=219|
8=FIXT.1.1|9=228|35=f|34=802|49=FGW|52=20201123-18:50:08.952|56=DEMO-CONN1|15=RUB|22=8|31=54|48=INST36|58=The simulated SecurityStatus has been sent|324=INST36|325=N|326=17|330=0|331=0|332=56|333=54|336=1|625=3|1025=54|1300=NEW|1301=Demo Market|10=221|
8=FIXT.1.1|9=228|35=f|34=802|49=FGW|52=20201123-18:50:08.952|56=DEMO-CONN1|15=RUB|22=8|31=54|48=INST37|58=The simulated SecurityStatus has been sent|324=INST37|325=N|326=17|330=0|331=0|332=56|333=54|336=1|625=3|1025=54|1300=NEW|1301=Demo Market|10=223|
8=FIXT.1.1|9=228|35=f|34=802|49=FGW|52=20201123-18:50:08.952|56=DEMO-CONN1|15=RUB|22=8|31=54|48=INST38|58=The simulated SecurityStatus has been sent|324=INST38|325=N|326=17|330=0|331=0|332=56|333=54|336=1|625=3|1025=54|1300=NEW|1301=Demo Market|10=225|
8=FIXT.1.1|9=228|35=f|34=802|49=FGW|52=20201123-18:50:08.952|56=DEMO-CONN1|15=RUB|22=8|31=54|48=INST39|58=The simulated SecurityStatus has been sent|324=INST39|325=N|326=17|330=0|331=0|332=56|333=54|336=1|625=3|1025=54|1300=NEW|1301=Demo Market|10=227|



















